:020000040800F2
:1000000098E5002029030008A9640008115600089B
:10001000A5640008C1070008CDC00008000000006A
:10002000000000000000000000000000690200085D
:100030008B13000800000000C50200083F93000871
:100040004303000843030008430300084303000878
:1000500043030008430300088D130008430300080E
:100060004303000897130008A11300084303000886
:100070004303000843030008430300084303000848
:10008000430300084303000843030008D5070008A2
:10009000C50700084303000843030008AB1300082A
:1000A0004303000843030008430300084303000818
:1000B0004303000843030008430300084303000808
:1000C00043030008430300084303000843030008F8
:1000D000430300084303000843030008CD9B0008C6
:1000E00043030008430300084303000843030008D8
:1000F000430300084303000843030008690900089C
:1001000043030008430300084303000843030008B7
:1001100043030008430300084303000843030008A7
:1001200043030008E5090008F50900084303000837
:100130004303000843030008430300084303000887
:10014000E50700084303000843030008AD64000806
:10015000430300088D1200089D1200080D9D000841
:100160004303000843030008430300084303000857
:100170004303000843030008430300080000000095
:10018000430300084303000800F002F800F05CF8A5
:100190000AA090E8000C82448344AAF10107DA45E2
:1001A00001D100F051F8AFF2090EBAE80F0013F0D8
:1001B000010F18BFFB1A43F00103184744FB00006E
:1001C00064FB00000A444FF0000C10F8013B13F0F0
:1001D000070408BF10F8014B1D1108BF10F8015BA0
:1001E000641E05D010F8016B641E01F8016BF9D193
:1001F00013F0080F1EBF10F8014BAD1C0C1B09D1EA
:100200006D1E58BF01F801CBFAD505E014F8016B5B
:1002100001F8016B6D1EF9D59142D6D370470000ED
:100220000023002400250026103A28BF78C1FBD8FF
:10023000520728BF30C148BF0B6070471FB50FF091
:100240000FFB1FBD10B510BD00F0D5F91146FFF72B
:10025000F5FF0CF091FE00F0F3F903B4FFF7F2FFA5
:1002600003BC00F0F7F900002C4B19680868B0E8EF
:10027000F04F80F30988BFF36F8F4FF0000080F3D9
:10028000118870470000000008480068006880F38B
:1002900008884FF0000080F3148862B661B6BFF39F
:1002A0004F8FBFF36F8F00DF00BF00BF08ED00E08E
:1002B000DFF80C00016841F470010160704700BF75
:1002C00088ED00E0EFF30980BFF36F8F134B1A68DE
:1002D0001EF0100F08BF20ED108A20E9F04F1060CB
:1002E00009B44FF0500080F31188BFF34F8FBFF374
:1002F0006F8F0EF0D7FA4FF0000080F3118809BC21
:1003000019680868B0E8F04F1EF0100F08BFB0EC95
:10031000108A80F30988BFF36F8F70475402002062
:10032000EFF30580704700000948804709480047FF
:10033000FEE7FEE7FEE7FEE7FEE7FEE7FEE7FEE795
:10034000FEE7FEE704480549054A064B70470000F2
:10035000099400088901000898A5002098E500206C
:1003600098C5002098C5002053EA020C00F069806F
:100370002DE9F04B4FF00006002B1FBFB3FA83F5B9
:1003800003FA05F424FA05F65E4012BF1643B2FAEA
:1003900082F502FA05F4C5F120051EBF22FA05FC1C
:1003A00044EA0C04203556EA044C4FEA144418BFC2
:1003B000641C4FF000084FF00009904271EB030CF1
:1003C00039D3002919BFB1FA81F701FA07F6B0FA5B
:1003D00080F700FA07F6C7F120071EBF20FA07FCD6
:1003E00046EA0C062037B6FBF4FCA7EB0507103FE6
:1003F00007F01F0BCBF120060CFA0BFB2CFA06F6CC
:1004000044BFB3460026202FA4BF5E464FF0000B2A
:100410005BEA060C08BF4FF0010B19EB0B09ABFBB5
:10042000027C48EB0608C01B06FB02CC0BFB03CC8E
:1004300071EB0C01C1E70B46024641464846BDE858
:10044000F08B13B54FF000004FF00001AFF30080C8
:10045000BDE81C407047032A40F2308010F0030CC6
:1004600000F0158011F8013BBCF1020F624498BF07
:1004700011F801CB00F8013B38BF11F8013BA2F1A4
:10048000040298BF00F801CB38BF00F8013B11F01F
:10049000030300F02580083AC0F0088051F8043BBF
:1004A000083A51F804CBA0E80810F5E7121D5CBF2C
:1004B00051F8043B40F8043BAFF30080D20724BF5F
:1004C00011F8013B11F801CB48BF11F8012B24BFF3
:1004D00000F8013B00F801CB48BF00F8012B704742
:1004E00010B5203AC0F00B80B1E81850203AA0E8CF
:1004F0001850B1E81850A0E81850BFF4F5AF5FEA03
:10050000027C24BFB1E81850A0E8185044BF18C9B5
:1005100018C0BDE810405FEA827C24BF51F8043B5C
:1005200040F8043B08BF7047D20728BF31F8023BB0
:1005300048BF11F8012B28BF20F8023B48BF00F844
:10054000012B704702F0FF0343EA032242EA024212
:1005500000F002B84FF000020429C0F0128010F041
:10056000030C00F01B80CCF1040CBCF1020F18BF8F
:1005700000F8012BA8BF20F8022BA1EB0C0100F022
:100580000DB85FEAC17C24BF00F8012B00F8012BF5
:1005900048BF00F8012B70474FF0000200B513462A
:1005A00094469646203922BFA0E80C50A0E80C5093
:1005B000B1F12001BFF4F7AF090728BFA0E80C5044
:1005C00048BF0CC05DF804EB890028BF40F8042B3D
:1005D00008BF704748BF20F8022B11F0804F18BFAA
:1005E00000F8012B7047704770477047004870470C
:1005F00038A5002070477546FFF7F8FFAE460500A6
:100600006946534620F00700854618B020B5FFF72D
:1006100099FEBDE820404FF000064FF000074FF074
:1006200000084FF0000B21F00701AC46ACE8C00910
:10063000ACE8C009ACE8C009ACE8C0098D46704719
:1006400010B50446AFF300802046BDE81040FFF728
:1006500004BE000001491820ABBEFEE726000200E0
:1006600055494A6822F440324A604A6843681A434E
:100670004A600268526822F4807203685A60026815
:100680005368026943EA022203685A6002685268AA
:1006900022F0407203685A600268526883681A4305
:1006A00003685A600268926822F4006203689A60E4
:1006B00002689268C3681A4303689A603F4B826A73
:1006C0009A4218D00268926822F0706203689A60B9
:1006D00002689268836A1A4303689A6002689268A3
:1006E00022F0405203689A6002689268C36A1A4313
:1006F00003689A600BE00268926822F070620368F7
:100700009A600268926822F0405203689A60026818
:10071000926822F0020203689A6002689368027E7F
:1007200043EA420203689A602022125CA2B1026886
:10073000526842F4006203685A600268526822F408
:10074000604203685A6002685368426A521E43EA74
:10075000423203685A6005E00268526822F400627F
:1007600003685A600268D26A22F470020368DA628F
:100770000268D36A828B521E43EA02520368DA622D
:100780000268926822F4007203689A6002689368B3
:1007900090F8302043EA422203689A600268926827
:1007A00022F4806203689A6002689368426943EAAF
:1007B000822203689A607047002301400100000F05
:1007C00000BFFEE710B5024801F092FB10BD00002B
:1007D0003C0B002010B5024801F08AFB10BD000060
:1007E0003C0B002010B5024801F082FB10BD000058
:1007F000640B0020F8B507460C4615461E464FF41C
:1008000000700D49086000208860C86008200861F9
:10081000380A0A4908704F70200A8870CC70280A7C
:1008200008714D71300A8871CE716B460A460249D3
:10083000034801F062F9F8BDC82E002038010020FD
:100840003C0B0020F8B507460C4615461E4640F204
:10085000FF100D49086000208860C860082008610A
:10086000380A0A4908704F70200A8870CC70280A2C
:1008700008714D71300A8871CE716B460A46024983
:10088000034801F03AF9F8BDB02E002030010020F5
:100890003C0B00200346042B15D007DC7BB1012B59
:1008A0000ED0022B0DD0032B12D10BE0202B0BD03E
:1008B000212B0AD0222B09D0232B09D107E008E0F5
:1008C00007E006E005E004E003E002E001E000E00C
:1008D00000BF00BF002070470020704710B5002205
:1008E0000449054809F0F6FB0449034809F0EBFB0D
:1008F000002010BD4025002048120020401D00208F
:1009000070B504460D46204629680DF0C9FC214605
:10091000034809F0D8FB024809F0B0FB002070BD85
:100920004812002010B503460C460021084610BDB1
:100930002DE9F04104460D4600260A48D0F8BC7265
:10094000D7F8140210B10120BDE8F0812A462146F3
:10095000044809F0BFFB034809F043FC0646304653
:10096000F2E70000481200201B48406800F00060D9
:1009700080B31A48406B00681949884205D94FF086
:10098000006017494C3908601CE01448406B00684F
:100990001149B831884205D94FF0006010495039EB
:1009A00008600FE00D48406B00680B4958318842E1
:1009B00004D94FF000600849C86003E04FF00060C0
:1009C0000549886005480068006840F400700349E4
:1009D000096808607047000000600240E00B0020DA
:1009E0005864024010B5024801F0F0FD10BD00004F
:1009F0008811002010B5FE48C06C0068FD4988428F
:100A000076D9FC4854380068F949C96C0968FA4A33
:100A1000914201D1202169E0F549C96C0968F54A84
:100A2000483A914201D1202160E0F149C96C09683E
:100A3000F14A6032914201D1202157E0EC49C96C62
:100A40000968EC4A1832914201D120214EE0E84970
:100A5000C96C0968E84A1832914201D1C91445E0CD
:100A6000E349C96C0968E34A303A914201D1C9149B
:100A70003CE0DF49C96C0968DF4A7832914201D114
:100A8000C91433E0DA49C96C0968DA4A3032914254
:100A900001D1C9142AE0D649C96C0968D64A303256
:100AA000914202D14FF4001120E0D149C96C09688C
:100AB000D04A183A914202D14FF4001116E0CC49C5
:100AC000C96C0968CC4A9032914202D14FF40011AE
:100AD0000CE0C749C96C0968C64A4832914203D143
:100AE0004FF4001102E003E04FF00061084070E1B4
:100AF000BF48C06C0068C049A831884276D9BD485B
:100B000058380068BA49C96C0968BB4A914201D19A
:100B1000202169E0B649C96C0968B64A483A914251
:100B200001D1202160E0B249C96C0968B24A603243
:100B3000914201D1202157E0AD49C96C0968AD4A05
:100B40001832914201D120214EE0A949C96C0968AF
:100B5000A94A1832914201D1C91445E0A449C96C8F
:100B60000968A44A303A914201D1C9143CE0A04935
:100B7000C96C0968A04A7832914201D1C91433E0A6
:100B80009B49C96C09689B4A3032914201D1C91412
:100B90002AE09749C96C0968974A3032914202D1DC
:100BA0004FF4001120E09249C96C0968914A183A43
:100BB000914202D14FF4001116E08D49C96C0968C9
:100BC0008D4A9032914202D14FF400110CE08849D5
:100BD000C96C0968874A4832914203D14FF4001129
:100BE00002E003E04FF000610840F2E08048C06C92
:100BF000006881494831884276D97F48103840687A
:100C00007B49C96C09687C4A914201D1202169E085
:100C10007749C96C0968774A483A914201D1202145
:100C200060E07349C96C0968734A6032914201D12E
:100C3000202157E06E49C96C09686E4A183291420A
:100C400001D120214EE06A49C96C09686A4A18320C
:100C5000914201D1C91445E06549C96C0968654AEA
:100C6000303A914201D1C9143CE06149C96C09682C
:100C7000614A7832914201D1C91433E05C49C96CB0
:100C800009685C4A3032914201D1C9142AE05849BE
:100C9000C96C0968584A3032914202D14FF40011B0
:100CA00020E05349C96C0968524A183A914202D16E
:100CB0004FF4001116E04E49C96C09684E4A903253
:100CC000914202D14FF400110CE04949C96C096806
:100CD000484A4832914203D14FF4001102E003E048
:100CE0004FF00061084074E0434810380068404904
:100CF000C96C0968404A914201D1202168E03C4911
:100D0000C96C09683B4A483A914201D120215FE011
:100D10003749C96C0968384A6032914201D12021B3
:100D200056E03349C96C0968324A1832914201D100
:100D300020214DE02E49C96C09682F4A1832914292
:100D400001D1C91444E02A49C96C0968294A303ADA
:100D5000914201D1C9143BE02549C96C0968264A72
:100D60007832914201D1C91432E02149C96C096835
:100D7000204A3032914201D1C91429E01C49C96C82
:100D800009681D4A3032914202D14FF400111FE030
:100D90001749C96C0968174A183A914202D14FF4B1
:100DA000001115E01249C96C0968134A903291424A
:100DB00002D14FF400110BE00D49C96C09680D4ACE
:100DC0004832914202D14FF4001101E04FF000612E
:100DD000084000286FD00648C06C0068054988426A
:100DE0007BD90348C06C00680349884208D105E0FC
:100DF000180D00205864024010600240202068E076
:100E0000FE48C06C0068FE49884201D1202060E0A5
:100E1000FA48C06C0068FB49884201D1202058E0A4
:100E2000F648C06C0068F6496031884201D1202044
:100E30004FE0F248C06C0068F2494839884201D15D
:100E4000C01446E0ED48C06C0068ED491831884296
:100E500001D1C0143DE0E948C06C0068E94918318F
:100E6000884201D1C01434E0E448C06C0068E44911
:100E70007831884201D1C0142BE0E048C06C006892
:100E8000E0493039884202D14FF4001021E0DB48BC
:100E9000C06C0068DA493031884202D14FF400104A
:100EA00017E0D648C06C0068D6493031884204D17A
:100EB0004FF400100DE0DFE10FE0D048C06C006897
:100EC000CF499031884202D14FF4001001E04FF039
:100ED0000060CB49091F08606AE1C848C06C00681F
:100EE000C8494831884274D9C448C06C0068C549B3
:100EF0006039884201D1202066E0C048C06C00689B
:100F0000BF49884201D120205EE0BC48C06C006827
:100F1000BC49884201D1202056E0B848C06C006826
:100F2000B7496031884201D120204DE0B348C06C00
:100F30000068B4494839884201D1C01444E0AF4840
:100F4000C06C0068AE491831884201D1C0143BE042
:100F5000AA48C06C0068AB491831884201D1C0145E
:100F600032E0A648C06C0068A5497831884201D1BA
:100F7000C01429E0A148C06C0068A24930398842F9
:100F800002D14FF400101FE09C48C06C00689C49DF
:100F90003031884202D14FF4001015E09748C06C00
:100FA000006898493031884202D14FF400100BE0BC
:100FB0009248C06C006892499031884202D14FF447
:100FC000001001E04FF000608D4908390860EFE043
:100FD000FFE78A48C06C00688A491839884274D98A
:100FE0008648C06C006887496039884201D120205A
:100FF00066E08248C06C00688149884201D12020A7
:101000005EE07E48C06C00687E49884201D12020A5
:1010100056E07A48C06C006879496031884201D155
:1010200020204DE07548C06C0068764948398842F8
:1010300001D1C01444E07148C06C00687049183197
:10104000884201D1C0143BE06C48C06C00686D4917
:101050001831884201D1C01432E06848C06C006881
:1010600067497831884201D1C01429E06348C06CD7
:10107000006864493039884202D14FF400101FE003
:101080005E48C06C00685E493031884202D14FF43E
:10109000001015E05948C06C00685A493031884248
:1010A00002D14FF400100BE05448C06C0068544962
:1010B0009031884202D14FF4001001E04FF00060FF
:1010C00050497039C86073E0FFE74C48C06C006855
:1010D0004C496039884201D1202066E04748C06C05
:1010E00000684749884201D120205EE04348C06C37
:1010F00000684449884201D1202056E03F48C06C36
:1011000000683F496031884201D120204DE03B48D2
:10111000C06C00683B494839884201D1C01444E0A2
:101120003648C06C006836491831884201D1C01475
:101130003BE03248C06C006832491831884201D126
:10114000C01432E02D48C06C00682D4978318842C7
:1011500001D1C01429E02948C06C00682949303900
:10116000884202D14FF400101FE02448C06C006890
:1011700023493031884202D14FF4001015E01F4856
:10118000C06C00681F493031884202D14FF4001012
:101190000BE01A48C06C006819499031884202D1AE
:1011A0004FF4001001E04FF000601649703988607C
:1011B0001548007800F0020078B11348007820F05C
:1011C0000200114908700846007840F004000870D9
:1011D000012211460D4801F00DFD0D48007800F088
:1011E0000200E0B10A48007820F0020008490870C7
:1011F0000846007840F0040008700BE0180D00204D
:101200001064024070600240690100200004024046
:101210006A01002001221021184801F0EBFC184857
:10122000007800F0020078B11548007820F0020044
:10123000134908700846007840F004000870012245
:1012400010210E4801F0D6FC0BF0C0FD0D480078CF
:1012500000F0040080B10B48007820F00400094938
:1012600008700846007840F00800087006480068DA
:1012700040F001000449086010BD00000000024079
:101280006B01002069010020103C014010B50248AC
:1012900001F09CF910BD0000E811002010B50248D3
:1012A00001F094F910BD0000C81000200146087834
:1012B00010381823B0FBF3F20848805CC865032A95
:1012C00005D908686FF30900001D886503E0086808
:1012D0006FF309008865886D70470000AAFC00085C
:1012E000014600208A6A8B69CBB932B1012A0DD040
:1012F000022A03D0032A10D10EE000BFCB6A03F00C
:101300008073B3F1807F00D1012007E0CB6AB3F195
:10131000C07F00D1012001E000E000BF34E08B6914
:10132000B3F5005F1AD132B1012A07D0022A03D0E7
:10133000032A11D10AE000BF01200EE0CB6A03F0BE
:101340008073B3F1807F00D1012006E0CB6AB3F156
:10135000C07F00D1012000E000BF15E032B1012ABA
:1013600005D0022A04D0032A0CD103E000BF00BF3D
:10137000012008E0CB6A03F08073B3F1807F00D1D5
:10138000012000E000BF00BF7047704710B501208A
:1013900001F022FB10BD10B5082001F01DFB10BDAF
:1013A00010B5102001F018FB10BD10B5202001F081
:1013B00013FB10BD7047000010B51E4890ED001AD9
:1013C000F3EE041A21EE211AF0EE410A1A480068E1
:1013D000B0F9020000EB8000400001EE100AB8EE08
:1013E000C11AB0EE410A154805F0B4F9BDEEC00AC5
:1013F000134880ED000A134890ED001AF3EE041A2A
:1014000021EE211AF0EE410A0F480068B0F90200FF
:1014100000EB8000400001EE100AB8EEC11AB0EEF9
:10142000410A0A4805F096F9BDEEC00A084880ED69
:10143000000A10BD1C02002010020020483E0020BF
:101440000C0200203002002024020020D83E0020A0
:101450002002002010B51B4800680088B0F5805FAE
:1014600019DD184800680088A0F5F850FF3800EE34
:10147000100AB8EEC00A144880ED000A1348D0EDF7
:10148000000A114890ED000A114805F063F911486F
:1014900080ED000A15E00B480068008800EE100A95
:1014A000B8EE400A084880ED000A0848D0ED000A6E
:1014B000054890ED000A064805F04CF9054880ED16
:1014C000000A10BD100200201802002014020020A3
:1014D000003E00201C02002010B51B480068008858
:1014E000B0F5805F19DD184800680088A0F5F85055
:1014F000FF3800EE100AB8EEC00A144880ED000A6A
:101500001348D0ED000A114890ED000A114805F08B
:1015100021F9114880ED000A15E00B4800680088A9
:1015200000EE100AB8EE400A084880ED000A0848AC
:10153000D0ED000A054890ED000A064805F00AF9CA
:10154000054880ED000A10BD240200202C02002076
:1015500028020020903E00203002002010B50BF041
:10156000D5FB0A490860DFED0A0A9FED090A094A1E
:101570000021094805F008FADFED080A9FED070A87
:10158000074A0021074805F0FFF910BD10020020AE
:101590000000874378F90008003E00200060EA461A
:1015A00084F90008483E002010B50BF0E1FB0A4921
:1015B0000860DFED0A0A9FED090A094A002109487F
:1015C00005F0E2F9DFED080A9FED070A074A00215E
:1015D000074805F0D9F910BD240200200000964309
:1015E00090F90008903E00200060EA469CF900084F
:1015F000D83E002070B50A480468001D0568001D2B
:101600000668344454B108220649204604F064F8C0
:10161000042204491031284604F05EF870BD000031
:10162000107AFF1F9E00002038B50246002000906F
:1016300000BF92F83C00012801D1022038BD0120F2
:1016400082F83C0000BF0868092816D91068C068F5
:101650000C780A3C04EB44050724AC40A043146812
:10166000E0600C780A3C04EB44048868A0401468ED
:10167000E46820431468E06013E0106800690C78A7
:1016800004EB44050724AC40A043146820610C78A7
:1016900004EB44048868A04014682469204314685B
:1016A00020614868072817D21068406B0C79641EC7
:1016B00004EB84051F24AC40A043146860630888D1
:1016C00080B20C79641E04EB8404A0401468646B3F
:1016D00020431468606331E048680D2817D2106811
:1016E000006B0C79E41F04EB84051F24AC40A0437D
:1016F00014682063088880B20C79E41F04EB84042A
:10170000A0401468246B20431468206316E010681E
:10171000C06A0C790D3C04EB84051F24AC40A04347
:101720001468E062088880B20C790D3C04EB8404F4
:10173000A0401468E46A20431468E062194B1A4C14
:101740001068A04206D10868122803D1586840F4F6
:1017500080005860144C1068A0421CD10868102802
:1017600002D00868112816D1586840F4000058606B
:10177000086810280FD10D4800680D4CB0FBF4F03C
:1017800000EB80004000009002E00098401E0090B6
:1017900000980028F9D100BF002082F83C0000BF6B
:1017A00000BF4BE70023014000200140CC00002097
:1017B00040420F0001460868C06C704770B504468F
:1017C00000250CB9012070BD1549A06A884200D0DF
:1017D00000BF206C30B9204600F024F8002060647F
:1017E00084F83C00206C00F0100088B9206C20F4D4
:1017F000885040F0020020642046FEF731FF0020B0
:101800006064206C20F0020040F00100206400E0E1
:10181000012500BF002084F83C0000BF2846D2E725
:101820000100000F10B586B00446142101A8FEF790
:10183000B3FE2349206888420FD100BF00200090EA
:101840002048006840F480701E490860084600681F
:1018500000F48070009000BF2FE01B492068884290
:101860002BD100BF002000901648006840F4806033
:10187000144908600846006800F48060009000BFCA
:1018800000BF00BF002000900E481438006840F0F0
:1018900020000C49143908600846006800F0200058
:1018A000009000BF00BF08150190032002900020A7
:1018B000039001A9054801F09DF806B010BD000095
:1018C0000020014044380240002201400014024040
:1018D00070B504460D4600262068806800F48060DC
:1018E000B0F5806F11D12068806800F48070B0F589
:1018F000807F0AD1206C40F02000206400BF0020CF
:1019000084F83C0000BF012070BD01F079F9064663
:1019100012E0681C80B125B101F072F9801BA84269
:101920000AD9206C40F00400206400BF002084F835
:101930003C0000BF0320E7E72068006800F00200D9
:101940000228E6D16FF0120021680860206C40F494
:10195000007020642068806800F04050B8B9207E94
:10196000A8B92068C06A00F4700020B120688068BF
:1019700000F4806058B9206C20F480702064206CE2
:1019800000F4805018B9206C40F001002064002061
:10199000BAE7000008B501460020009000BF91F8AA
:1019A0003C00012801D1022008BD012081F83C0043
:1019B00000BF0868806800F00100A0B9086880686E
:1019C00040F001000B6898603B4800683B4BB0FB5F
:1019D000F3F000EB4000009002E00098401E009001
:1019E00000980028F9D10868806800F001000028FC
:1019F0005FD0086C40F20163984340F48070086443
:101A00000868406800F4806028B1086C20F4005039
:101A100040F480500864086C00F48050B0F5805F9A
:101A200004D1486C20F00600486401E000204864BE
:101A300000BF002081F83C0000BF214A6FF0220067
:101A40000B681860506800F01F0018BB1D4B086839
:101A5000984213D01C4B0868984204D1101D0068AE
:101A600000F01F0050B1194B0868984221D114486A
:101A7000001D006800F01F0010281AD20868806856
:101A800000F0405028B90868806840F080400B683A
:101A900098600EE00B4B086898420AD1086880688D
:101AA00000F0405028B90868806840F080400B681A
:101AB0009860002078E70000CC00002040420F0032
:101AC000002301400020014000210140002201408C
:101AD00010B5024692F82030012B01D0022B06D11E
:101AE00010684069084314686061002010BD506AA6
:101AF00040F4802050620120F8E7F0B504460D461E
:101B00001E4694F8207020688368A86800B900E039
:101B100000BF012F01D0022F7CD103F0806030B9CB
:101B200003F0006018B903F08050002873D0C3F3AD
:101B30000161022905D9606A40F400006062012059
:101B4000F0BD012088403060A86860B9B5F800C0D9
:101B5000E86840EA4C5C206800F5C07000EB0110BA
:101B6000C0F800C00FE0D5E901C040EACC00D5F8CC
:101B70000CC040EA0C00D4F800C00CF5C07C0CEBA3
:101B8000011CCCF80000D5F810C0206800F5C0702A
:101B900000EB0110C0F804C0287D01280ED1206898
:101BA00000F5C07000EB0110406840F4807C2068B4
:101BB00000F5C07000EB0110C0F804C0D079000639
:101BC00092F806C040EA0C4092F805C040EA0C2C9E
:101BD00010794CEA000C206800F5C07000EB011091
:101BE000C0F80CC0D078000692F802C040EA0C4061
:101BF00092F801C040EA0C2092F800C040EA0C00C4
:101C0000D4F800C00CF5C07C0CEB011CCCF808002B
:101C1000206801E016E00FE000F5C07000EB011055
:101C2000006840F0010C206800F5C07000EB011066
:101C3000C0F800C0002083E7606A40F400106062D2
:101C400001207DE7606A40F480206062012077E730
:101C5000F0B504460A46216894F82050012D01D0C1
:101C6000022D7ED1424901F50071086840F0010063
:101C70000860086820F47C5008600868566A40EAEA
:101C800006200860107D00F01F06012000FA06F310
:101C9000C8699843C861A1F50071D069C8B9D1F885
:101CA0000C029843C1F80C02908880B2968940EAF1
:101CB000064601F51070576940F83760108880B209
:101CC000168940EA064601F51070576900EBC70017
:101CD0004660D069012819D1D1F80C021843C1F827
:101CE0000C02908880B2168840EA064601F5107012
:101CF000576940F83760908980B2168940EA0646F5
:101D000001F51070576900EBC7004660906928B96B
:101D1000D1F804029843C1F8040204E0D1F80402A7
:101D20001843C1F80402106928B9D1F81402984385
:101D3000C1F8140204E0D1F814021843C1F81402E7
:101D4000106A012804D1D1F81C021843C1F81C0202
:101D5000D1F8000220F00100C1F800020020F0BD1F
:101D6000FFE7606A40F4802060620120F7E700002E
:101D700000640040704770B5044694F82050012D6F
:101D800001D0022D7DD151B92068C06800F0030058
:101D900080B9606A40F400106062012070BD206864
:101DA000006900F0030028B9606A40F40010606226
:101DB0000120F3E7206800F5D87000EB01100068FF
:101DC00000F004009060906840B9206800F5D87079
:101DD00000EB01100068400D106007E0206800F57E
:101DE000D87000EB01100068C0085060206800F552
:101DF000D87000EB0110006800F00200D06020688D
:101E000000F5D87000EB0110406800F00F00106181
:101E1000206800F5D87000EB0110406800F47F40A6
:101E2000000A9061206800F5D87000EB011040684E
:101E3000000C5061206800F5D87000EB011080683C
:101E40001870206800F5D87000EB0110806800F46D
:101E50007F40000A5870206800F5D87000EB011030
:101E6000806800F47F00000C9870206800F5D8703E
:101E700000EB01108068000ED870206800F5D87063
:101E800000E02FE000EB0110C0681871206800F539
:101E9000D87000EB0110C06800F47F40000A587150
:101EA000206800F5D87000EB0110C06800F47F00D6
:101EB000000C9871206800F5D87000EB0110C06824
:101EC000000ED87131B92068C06840F02000266843
:101ED000F06005E02068006940F02000266830616D
:101EE00000205BE7606A40F480206062012055E7D3
:101EF0002DE9F05F04460025206846692068D0F887
:101F00000490206887682068D0F80CA02068D0F87A
:101F100010B02068D0F8188006F00100002855D0D5
:101F200007F00100C0B101202168886007F00200BD
:101F300018B1204600F019FB0EE007F0040010B1C4
:101F400045F4006508E007F0080010B145F480553D
:101F500002E0204600F008FB07F48070C8B14FF49F
:101F600080702168886007F4007018B1204600F086
:101F7000FEFA0EE007F4806010B145F4005508E069
:101F800007F4006010B145F4804502E0204600F0FF
:101F9000EDFA07F48030C8B14FF4803021688860D2
:101FA00007F4003018B1204600F0E3FA0EE007F421
:101FB000802010B145F4004508E007F4002010B17E
:101FC00045F4803502E0204600F0D2FA06F0080021
:101FD00038B10AF0100020B145F4007510202168D6
:101FE000C86006F0040040B10AF0080028B10820DB
:101FF0002168C860204600F015FA06F0020038B1EA
:102000002068C06800F0030010B1204600F00CFA10
:1020100006F0400038B10BF0100020B145F48065A7
:1020200010202168086106F0200040B10BF0080084
:1020300028B1082021680861204600F063FA06F004
:10204000100038B12068006900F0030010B120468C
:1020500000F059FA06F4003040B109F0100028B140
:10206000102021684860204600F04EFA06F48030C7
:1020700040B109F0080028B10820216848602046D6
:1020800000F078FA06F4004088B309F0040078B351
:1020900006F4807020B108F0010008B145F0010598
:1020A00006F4007020B108F0020008B145F0020506
:1020B00006F4806020B108F0040008B145F0040582
:1020C00006F40060A0B108F0700088B108F070005C
:1020D000402817D006DC10280BD020280CD0302840
:1020E00019D10CE0502810D0602814D110E01DE068
:1020F00019E045F008050FE045F010050CE045F04B
:10210000200509E045F0400506E045F0800503E0C4
:1021100045F4807500E000BF00BF2068806920F0B2
:102120007000216888610420216848602DB1606AD0
:10213000284360622046FFF71DFEBDE8F09F70B5A2
:1021400004460CB9012070BD94F8200010B9204657
:1021500000F0B0F82068006820F0020021680860F4
:1021600000F04EFD05460DE000F04AFD401B0A2838
:1021700008D9606A40F400306062052084F82000CD
:102180000120E0E72068406800F002000028EBD161
:102190002068006840F001002168086000F030FD10
:1021A00005460DE000F02CFD401B0A2808D9606AA6
:1021B00040F400306062052084F820000120C2E76E
:1021C0002068406800F001000028EBD0207E012844
:1021D00006D12068006840F080002168086005E0B2
:1021E0002068006820F0800021680860607E012877
:1021F00006D12068006840F040002168086005E0D2
:102200002068006820F0400021680860A07E012856
:1022100006D12068006840F020002168086005E0D1
:102220002068006820F0200021680860E07E012816
:1022300006D12068006820F010002168086005E0E1
:102240002068006840F0100021680860207F0128A5
:1022500006D12068006840F008002168086005E0A9
:102260002068006820F0080021680860607F01286D
:1022700006D12068006840F004002168086005E08D
:102280002068006820F0040021680860D4E9020199
:10229000084321690843616908436168491E08438E
:1022A0002168C86100206062012084F820000020BD
:1022B00049E7000010B586B00446142101A8FEF7D6
:1022C0006BF952492068884249D151480068401C46
:1022D0004F4908600846006801280FD100BF002060
:1022E00000904C48006840F000704A490860084679
:1022F000006800F00070009000BF00BF00BF002029
:10230000009044481038006840F0080041491039F6
:1023100008600846006800F00800009000BF00BF99
:1023200003200190022002900020039003200490DB
:102330000920059001A9384800F05CFB0022052126
:10234000132000F0D9FE132000F0C6FE0022062163
:10235000142000F0D1FE142000F0BEFE54E02F49FE
:102360002068884250D100BF0020009029480068B2
:1023700040F08060274908600846006800F08060EF
:10238000009000BF00BF22480068401C2049086040
:102390000846006801280FD100BF002000901D48AA
:1023A000006840F000701B4908600846006800F0B3
:1023B0000070009000BF00BF00BF002000901548D3
:1023C0001038006840F002001249103908600846D1
:1023D000006800F00200009000BF00BF6020019084
:1023E0000220029000200390032004900920059011
:1023F00001A90B4800F0FEFA00220621402000F05F
:102400007BFE402000F068FE06B010BD0064004076
:102410005C00002040380240000C02400068004090
:10242000000402407047000010B58AB0044601ABBA
:1024300003AA00212046FFF79EFC0398A0F201208A
:10244000072857D2DFE800F00405060708090A004C
:1024500000BF00BF00BF00BF00BF00BF0398401E09
:10246000264908700846007800EB8000244931F8BE
:10247000100000B22149097801EB8101204A02EBEA
:10248000410108819DF805009DF8041040EA0120F3
:102490001A49097801EB810122F811009DF8070023
:1024A0009DF8061040EA012000B21449097801EBBA
:1024B000810102EB410148809DF809009DF8081058
:1024C00040EA012000B20D49097801EB810102EBDD
:1024D000410188809DF80A000849097801EB8101D3
:1024E00002EB4101887105490978491CC8B20AF01C
:1024F00073FA00E000BF00BF0AB010BD4001002029
:10250000682E002070477047704770B5044694F8F5
:102510002000012822D1022084F8200020680068D1
:1025200020F001002168086000F06AFB05460DE01C
:1025300000F066FB401B0A2808D9606A40F40030AE
:102540006062052084F82000012070BD206840688A
:1025500000F001000028EBD16062F6E7606A40F409
:10256000002060620120F0E77047704770477047B5
:1025700070477047704710B504460CB9012010BD74
:10258000607920B900202071204600F005F8012074
:1025900060710020F3E7000008B50A4A0168914223
:1025A0000FD100BF002100910749096841F4805113
:1025B000054A11601146096801F48051009100BF7D
:1025C00000BF08BD0030024030380240F8B5044674
:1025D000002000908C4800684FF41651B0FBF1F7D2
:1025E000A56D2E6894F85C1008208840304098B1A2
:1025F0002068006800F0040070B12068006820F0D6
:1026000004002168086094F85C1008208840A860E5
:10261000606D40F00100606594F85C100120884016
:10262000304068B12068406900F0800040B194F803
:102630005C1001208840A860606D40F00200606579
:1026400094F85C1004208840304068B1206800682D
:1026500000F0020040B194F85C1004208840A860AB
:10266000606D40F00400606594F85C1010208840B4
:10267000304078B32068006800F0080050B394F848
:102680005C1010208840A8602068006800F480205A
:1026900080B12068006800F4002028B9206CC8B11F
:1026A0002046216C884715E0A06C98B12046A16CAB
:1026B00088470FE02068006800F4807028B920681F
:1026C000006820F0080021680860206C10B12046E6
:1026D000216C884794F85C10202088403040002806
:1026E00065D02068006800F0100000285FD094F8E2
:1026F0005C1020208840A86094F83500052828D177
:102700002068006820F01600216808602068406991
:1027100020F0800021684861206C08B9A06C28B1C5
:102720002068006820F008002168086094F85C10B8
:102730003F208840A86000BF002084F8340000BF1C
:10274000012084F83500206D10B12046216D8847A6
:10275000F8BD2068006800F4802080B1206800681F
:1027600000F4002028B9606C10B12046616C8847E5
:102770001DE0E06BD8B12046E16B884717E0206888
:10278000006800F4807068B92068006820F01000CC
:102790002168086000BF002084F8340000BF0120D9
:1027A00084F83500E06B10B12046E16B8847606D1E
:1027B00038B3606D00F00100F0B1052084F83500F9
:1027C0002068006820F001002168086000BF0098C0
:1027D000401C0090B84200D905E02068006800F075
:1027E00001000028F3D100BF00BF002084F83400AE
:1027F00000BF012084F83500E06C10B12046E16C88
:10280000884700BFA4E70000CC0000202DE9F0417C
:102810000446002500F0F4F9074614B90120BDE88C
:10282000F081606A00B100BF00BF002084F834006E
:1028300000BF022084F835002068006820F0010005
:10284000216808600AE000F0DBF9C01B052805D903
:1028500020206065032084F83500E0E720680068E8
:1028600000F001000028EED12068056821480540ED
:10287000D4E901010843E16808432169084361691B
:102880000843A1690843E1690843216A08430543F5
:10289000606A042803D1D4E90B010843054320688A
:1028A00005602068456925F00705606A0543606A90
:1028B00004280DD1A06A0543E06A48B12046FEF71E
:1028C0000FFD28B140206065012084F83500A6E79F
:1028D000206845612046FEF7E9FC064694F85C1046
:1028E0003F208840B06000206065012084F83500FA
:1028F000002094E73F8010F070B5044600F080F9A6
:1029000006462546681C10B104480078054400BFFF
:1029100000F076F9801BA842FAD370BD5002002067
:1029200010B50446102C14D109200AF055F822489D
:10293000007840F00100204908702048007840F0FD
:1029400001001E4908701E480078A0B30AF03EFA44
:1029500031E0202C0ED108200AF03EF8194800780A
:1029600040F00100174908701548007818B30AF0C4
:102970002DFA20E0082C09D10A200AF02DF812487F
:10298000007840F001001049087014E0012C12D1C9
:102990000CF0A8FC01280ED00C490D4800680BF083
:1029A00069FE0A48006830B120070A490860BFF391
:1029B0004F8FBFF36F8F10BD6A0100206B010020A5
:1029C0006D010020690100206C010020E001002061
:1029D0004401002004ED00E010B5044604480068FE
:1029E000204020B1024804602046FFF799FF10BD47
:1029F000143C0140F8B502460B4600250024002097
:102A00000021DCE0012606FA01F51E6806EA05044D
:102A1000AC4273D15E68012E08D05E68022E05D0EC
:102A20005E68112E02D05E68122E13D190684F009E
:102A30000326BE40B0434F00DE68BE403043906086
:102A4000506801268E40B0431E79C6F300168E40B2
:102A500030435060D0684F000326BE40B0434F0063
:102A60009E68BE403043D0605E68022E02D05E6831
:102A7000122E13D1CF0802F1200656F827004E0778
:102A8000F70E0F26BE40B0434F07FF0E1E69BE4033
:102A90003043CF0802F1200646F8270010684F00A7
:102AA0000326BE40B0431E7906F003064F00BE4029
:102AB000304310605E6806F08056B6F1805F7DD1CD
:102AC00000BF00260096404E366846F480463E4FD2
:102AD0003E603E46366806F48046009600BF00BF62
:102AE0003A4E8F0856F827008E07370F0F26BE4044
:102AF000B043374EB24202D1002624E05EE0354EAC
:102B0000B24201D101261EE0334EB24201D102266B
:102B100019E0324EB24201D1032614E0304EB242E7
:102B200001D104260FE02F4EB24201D105260AE062
:102B30002D4EB24201D1062605E02C4EB24201D103
:102B4000072600E008268F073F0FBE4030431F4E88
:102B50008F0846F82700264E3068A0435E6806F4CA
:102B60008036B6F5803F00D12043214E3060361DBF
:102B70003068A0435E6806F40036B6F5003F00D129
:102B800020431B4E361D3060361D3068A0435E6802
:102B900006F48016B6F5801F00D12043144E083687
:102BA0003060361D3068A0435E6806F40016B6F546
:102BB000001F00D120430E4E0C363060491C1029F6
:102BC000FFF420AFF8BD000044380240083801404F
:102BD000000002400004024000080240000C0240D5
:102BE000001002400014024000180240001C024085
:102BF000003C01400AB1816101E00B048361704730
:102C000001480068704700004802002070B5044683
:102C10000CB9012070BD94F83D0028B9002084F85B
:102C20003C00204600F0DAF8242084F83D002068BB
:102C3000006820F00100216808602068006840F406
:102C40000040216808602068006820F40040216886
:102C5000086001F049FA05465C496068884206D878
:102C60005B48854201D2012007E0002005E0594879
:102C7000854201D2012000E00020012800D1C9E7EF
:102C80005548B5FBF0F62068406820F03F0030431F
:102C9000216848604D496068884201D8701C07E08F
:102CA0004FF4967070434FF47A71B0FBF1F0401C12
:102CB0002168096A21F03F010843216808624349FD
:102CC0006068884214D8681E61684900B0FBF1F062
:102CD000401CC0F30B00042801D204203DE0681E14
:102CE00061684900B0FBF1F0401CC0F30B0034E018
:102CF000A06838B9681E616801EB4101B0FBF1F0D2
:102D0000401C0AE0681E616801EBC10202EB011180
:102D1000B0FBF1F0401C40F48040C0F30B0008B958
:102D200001201AE0A06848B9681E616801EB410102
:102D3000B0FBF1F0401CC0F30B000CE0681E6168B2
:102D400001EBC10202EB0111B0FBF1F0401CC0F33A
:102D50000B0040F4804040F400402168C9694CF603
:102D6000FF72914308432168C861D4E90701084311
:102D70002168096821F0C001084321680860D4E98E
:102D8000031008432168896848F2FF3291430843E1
:102D900021688860D4E9050108432168C96821F0E9
:102DA000FF0108432168C8602068006840F0010006
:102DB0002168086000202064202084F83D00002065
:102DC000206384F83E0000BF24E70000A0860100D5
:102DD00080841E0000093D0040420F0010B586B0FF
:102DE0000446142101A8FDF7D7FB734920688842E7
:102DF00030D100BF002000907048006840F0020011
:102E00006E4908600846006800F00200009000BFAC
:102E100000BF4FF4407001901220029001200390F7
:102E2000032004900420059001A96548FFF7E2FD06
:102E300000BF0020009061481030006840F400108E
:102E40005E49103108600846006800F400100090E8
:102E500000BFAFE05B492068884259D100BF002025
:102E600000905648006840F0200054490860084629
:102E7000006800F02000009000BF00BF0320019018
:102E8000122002900120039003200490042005905A
:102E900001A94D48FFF7AEFD00BF00200090474854
:102EA0001030006840F48000444910310860084642
:102EB000006800F48000009000BF00BF4348444910
:102EC00008604FF060604860402141488160002107
:102ED000C1604FF480610161002141618161C16184
:102EE0004FF40031016200214162FFF78FFC08B10D
:102EF000FEF760FA00BF36486063846300BF354860
:102F00000068406840F4006032490968486051E058
:102F10003149206888424DD100BF002000902748E9
:102F2000006840F00400254908600846006800F089
:102F30000400009000BF00BF00BF002000900846C2
:102F4000006840F0010008600846006800F00100D9
:102F5000009000BF00BF4815019012200290012090
:102F60000390032004900420059001A91B48FFF75B
:102F700041FD4FF4807001901220029001200390D7
:102F8000032004900420059001A91548FFF732FDA5
:102F900000BF0020009009481030006840F4000095
:102FA0000649103108600846006800F400000090EF
:102FB00000BF00BF06B010BD0054004030380240D2
:102FC000000402400058004000140240B860024073
:102FD000880C0020E00B0020005C0040000802404C
:102FE0000000024003480068034909780844014989
:102FF00008607047480200205002002010B50D48BC
:10300000006840F400700B4908600846006840F40E
:10301000806008600846006840F480700860032003
:1030200000F0A8F80F2000F007F800F02BF80020BF
:1030300010BD0000003C024070B504460E48007808
:103040004FF47A71B1FBF0F00C490968B1FBF0F56F
:10305000284601F00FFD08B1012070BD102C07D2E9
:1030600000222146501E00F047F80548046001E0A8
:103070000120F2E70020F0E750020020CC00002001
:103080004C02002008B500BF0020009011480068E5
:1030900040F480400F4908600846006800F4804012
:1030A000009000BF00BF00BF00200090081F006814
:1030B00040F08050091F08600846006800F080500A
:1030C000009000BF00BF00220F21901E00F014F8F6
:1030D00008BD00004438024001460846002809DBCC
:1030E00000F01F0301229A4043099B0003F1E023F3
:1030F000C3F8002100BF70472DE9F05F80460D4600
:103100001646002708F0E4FF074639462A463346AC
:1031100001F00700C0F1070ABAF1040F02D94FF01D
:10312000040A01E0C0F1070AD14600F1040ABAF12D
:10313000070F02D24FF0000A01E0A0F1030AD446C3
:103140004FF0010A0AFA09FAAAF1010A0AEA020A88
:103150000AFA0CFA4FF0010B0BFA0CFBABF1010B66
:103160000BEA030B4AEA0B042146404608F0B8FF7D
:10317000BDE8F09F00BF00F00702064B19684FF64C
:10318000FF031940044B0B4343EA0221014B196032
:1031900000BF70470CED00E00000FA0570470246E2
:1031A0001068416200207047F0B503461546186864
:1031B000446A21B944EA05401E68B06219E0186803
:1031C000806A04EB1044002208E0186800F5827061
:1031D00050F8220004EB1044501CC2B2481E90422A
:1031E000F3D844EA0547186800F582704E1E40F88F
:1031F00026700020F0BD10B50446D4F8040407F092
:10320000CCFB10BD70B504460D46C5EBC50304F1FB
:103210003C0101EB8301CA682946D4F8040407F095
:1032200000FB70BD70B504460D46C5EBC50304F543
:10323000FE7101EB8301CA682946D4F8040407F043
:1032400063FB70BD10B50446D4F8040407F0A8FB76
:1032500010BD70B504460E4606F0800080280AD1E5
:1032600006F00F00C0EBC00104F13C0000EB81054B
:103270000120687009E006F00F00C0EBC00104F502
:10328000FE7000EB81050020687006F00F002870CA
:1032900000BF94F8BC03012801D1022070BD0120B9
:1032A00084F8BC0300BF2946206808F089F800BFF5
:1032B000002084F8BC0300BF00BFEFE770B50446F0
:1032C0000E4606F00F006168884201D9012070BDEA
:1032D00006F0800080280AD106F00F00C0EBC00184
:1032E00004F13C0000EB81050120687009E006F064
:1032F0000F00C0EBC00104F5FE7000EB810500205B
:1033000068700020A87006F00F00287000BF94F8C5
:10331000BC03012801D10220D9E7012084F8BC03B5
:1033200000BF2946206808F031FB00BF002084F868
:10333000BC0300BF00BFCAE7024601F00F00C0EBAC
:10334000C00302F5FE7000EB8300806970472DE931
:10335000F04705460E4690461F464FF0000906F01E
:10336000800080280AD106F00F00C0EBC00105F1F3
:103370003C0000EB81040120607009E006F00F00C2
:10338000C0EBC00105F5FE7000EB81040020607009
:1033900006F00F002070C4F80880E770607808B16C
:1033A0002078E080022F01D10020207100BF95F825
:1033B000BC03012802D10220BDE8F087012085F876
:1033C000BC0300BF2146286807F016FF00BF00209D
:1033D00085F8BC0300BF4846EEE72DE9F0410446FE
:1033E0000E461746984606F00F00C0EBC00104F5E4
:1033F000FE7000EB8105EF60C5F814800020A86125
:10340000687006F00F0028702069012800D12F6134
:1034100006F00F0028B9227C2946206808F092F9AE
:1034200004E0227C2946206808F044FB0020BDE827
:10343000F08170B504460D4605F00F0061688842C2
:1034400001D9012070BD05F0800080280AD105F067
:103450000F00C0EBC00104F13C0000EB810601202D
:10346000707007E0C5EBC50104F5FE7000EB810646
:10347000002070700120B07005F00F00307000BFA8
:1034800094F8BC03012801D10220DBE7012084F875
:10349000BC0300BF3146206808F0BFFA05F00F00FA
:1034A00028B9217C04F57172206808F037FA00BF52
:1034B000002084F8BC0300BF00BFC3E72DE9F04142
:1034C00004460E461746984606F00F00C0EBC001B2
:1034D00004F13C0000EB8105EF60C5F8148000208A
:1034E000A8610120687006F00F002870206901288B
:1034F00000D12F6106F00F0028B9227C29462068F0
:1035000008F020F904E0227C2946206808F0D2FA6D
:103510000020BDE8F0812DE9FE4F044620680290AE
:10352000029D206808F0B1FC00287DD1206808F0D9
:10353000EBFC08B9BDE8FE8F206808F0E5FC00F060
:103540000200022805D12068406900F002002168CD
:103550004861206808F0D8FC00F01000102846D11F
:103560002068806920F01000216888610298D0F8F6
:10357000209009F00F00C0EBC00104F5FE7000EBD5
:10358000810BC9F3434002281AD147F6F07009EACB
:10359000000030B3C9F30A12DBF80C10029808F0EF
:1035A000B8FCC9F30A11DBF80C000844CBF80C0096
:1035B000C9F30A11DBF818000844CBF8180010E032
:1035C000C9F3434006280CD1082204F57171029812
:1035D00008F09FFCC9F30A11DBF818000844CBF887
:1035E00018002068806940F0100021688861206818
:1035F00008F08AFC00F40020B0F5002F52D100261C
:10360000206808F051FC824649E00AF00100E8B366
:10361000F1B2206808F06BFC804608F0010058B158
:10362000012105F5306000E021E200EB46108160E9
:103630003146204602F074FF08F00800082809D13E
:10364000082105F5306000EB4610816031462046C8
:1036500002F034FF08F01000102805D1102105F504
:10366000306000EB4610816008F02000202805D172
:10367000202105F5306000EB4610816008F4005011
:10368000B0F5005F08D14FF4005100E004E005F50B
:10369000306000EB46108160761C4FEA5A0ABAF19E
:1036A000000FB2D1206808F02FFC00F48020B0F5A4
:1036B000802F7ED1206808F0EDFB8246002683E053
:1036C0000AF0010000287CD0F1B2206808F0F6FB77
:1036D000804608F00100F0B306F00F010120884099
:1036E000019040F634004159019821EA000040F66B
:1036F00034014851012105F5106000EB461081604E
:103700002069012824D1C6EBC60104F13C0000EB7E
:103710008100C6EBC602C16804F13C0000EB8200E8
:1037200080680144C6EBC60204F13C0000EB820055
:10373000C1606EB9C6EBC60104F13C0000EB81002C
:10374000406928B904F571720121206808F0E6F893
:10375000F1B2204600E001E0FFF754FD08F0080058
:10376000082805D1082105F5106000EB461081609E
:1037700008F01000102805D1102105F5106000EBAD
:103780004610816008F04000402805D1402105F531
:10379000106000EB4610816008F00200022805D19D
:1037A000022105F5106000EB4610816008F08000F2
:1037B00001E00DE005E0802803D13146204602F00B
:1037C0006DFF761C4FEA5A0ABAF1000F7FF478AF0A
:1037D000206808F099FB00F00040B0F1004F1CD1C8
:1037E00040F60400405920F0010140F60400415128
:1037F00094F8F403012807D1002084F8F403002191
:103800002046FFF7CBFC02E0204600F063FA206878
:10381000406900F0004021684861206808F074FBAE
:1038200000F40060B0F5006F0ED140F6080040597A
:1038300000F0010010B1204600F0A4FA20684069B1
:1038400000F4006021684861206808F05DFB00F426
:103850008050B0F5805F7DD140F60400405920F0E3
:10386000010140F6040041511021206808F0E2FAFD
:1038700000273EE04FF67F3105F5106000EB471062
:10388000816005F5106000EB4710006820F400111E
:1038900005F5106000EB4710016005F5106000EBC6
:1038A0004710006840F0006105F5106000EB47101C
:1038B00001604FF67F3105F5306000EB4710816005
:1038C00005F5306000EB4710006820F4001105F5A5
:1038D000306000EB4710016005F5306000EB4710E9
:1038E000006840F0006105F5306000EB47100160B2
:1038F0007F1C6068B842BDD840F61C00405940F0BB
:10390000011140F61C004151206B70B1D5F88408BC
:1039100040F00B01C5F8841840F64400405940F0CF
:103920000B0140F6440041510FE040F614004059AD
:1039300042F22B01084340F614014851081F405938
:1039400040F00B014FF401604151D5F8000820F41C
:10395000FE6000E00DE0C5F80008217C04F57172FE
:10396000206807F0DBFF2068406900F48050216880
:103970004861206808F0C8FA00F40050B0F5005F14
:1039800017D1206807F0A0FC206808F06BFAE0600F
:1039900000F0A4FB0090227B2068009908F004FB53
:1039A000204600F07FF92068406900F4005021684B
:1039B0004861206808F0A8FA00F00800082808D13B
:1039C000204600F08EF92068406900F00800216868
:1039D0004861206808F098FA00F48010B0F5801F64
:1039E0000AD100263146204600F043F8206840699D
:1039F00000F4801021684861206808F085FA00F41E
:103A00000010B0F5001F0AD100263146204600F014
:103A100039F82068406900F4001021684861206886
:103A200008F072FA00F08040B0F1804F08D12046D3
:103A3000FFF7E1FB2068406900F0804021684861A1
:103A4000206808F061FA00F0040004280FD1206813
:103A5000D0F8049009F00400042802D12046FFF7B2
:103A6000F1FB2068406840EA09002168486000BF17
:103A700060E570B504460D462946D4F8040406F006
:103A8000F9FF70BD70B504460D462946D4F804040C
:103A900006F0F3FF70BD70B58AB0044614B901207A
:103AA0000AB070BD266894F8BD0328B9002084F8D8
:103AB000BC03204600F0A2F8032084F8BD03F06B9D
:103AC00000F4807008B900212161206807F032FEFF
:103AD000282204F110016846FCF702FD94E80F006B
:103AE00007F006FC20B1022084F8BD030120D7E7CF
:103AF0000021206808F01EFA002531E00121C5EB05
:103B0000C50204F13C0000EB82004170C5EBC50129
:103B100004F13C0000F82150C5EBC50100EB810029
:103B2000C5800021C5EBC50204F13C0000EB82001A
:103B3000C170C5EBC50204F13C0000EB820081605E
:103B4000C5EBC50204F13C0000EB8200C160C5EB8F
:103B5000C50204F13C0000EB82004161681CC5B263
:103B60006068A842CAD800252AE00021C5EBC5023A
:103B700004F5FE7000EB82004170C5EBC50104F551
:103B8000FE7000F821500021C5EBC50200EB820059
:103B9000C170C5EBC50204F5FE7000EB82008160C8
:103BA000C5EBC50204F5FE7000EB8200C160C5EBF9
:103BB000C50204F5FE7000EB82004161681CC5B2CD
:103BC0006068A842D1D8282204F110016846FCF7A9
:103BD00087FC94E80F0007F0BDFC20B1022084F8B8
:103BE000BD0301205CE7002084F83800012084F840
:103BF000BD03206807F09CFC002051E710B586B09B
:103C00000446142101A8FCF7C7FC2068B0F1A04FBE
:103C100042D100BF002000902048006840F0010021
:103C20001E4908600846006800F00100009000BFCF
:103C300000BF4FF4C050019002200290002003907A
:103C4000032004900A20059001A91548FEF7D2FE32
:103C500000BF1248001D006840F080000F49091D98
:103C6000086000BF002000900C481430006840F449
:103C700080400A49143108600846006800F480401A
:103C8000009000BF00BF00BF002205214320FFF7C6
:103C900033FA4320FFF720FA06B010BD3038024057
:103CA0000000024070B504460125E06808B900250F
:103CB00006E0E068022801D1012501E0FDF77AFB6A
:103CC0002946D4F8040406F054FFD4F8040406F09E
:103CD00007FF70BD10B50446D4F8040406F02DFFAC
:103CE00010BD10B50446D4F8040406F031FF10BD31
:103CF00070B504460D4600BF94F8BC03012801D1FD
:103D0000022070BD012084F8BC0300BF84F8385045
:103D10002946206808F029F900BF002084F8BC0378
:103D200000BF00BFEDE710B5044604F57171D4F88B
:103D3000040406F035FF10BD70B50446256800BFC9
:103D400094F8BC03012801D1022070BD012084F841
:103D5000BC0300BFA06A012806D1A069012803D0D6
:103D6000A86B40F48030A863206808F045F820680C
:103D700007F0CCFB00BF002084F8BC0300BF00BFED
:103D8000E3E7000010B50446D4F8040406F065FF2C
:103D90002068D0F8000E40F001002168C1F8000E44
:103DA000206A28B10348006840F006000149086015
:103DB00010BD000010ED00E0F8B504460025002617
:103DC000207800F0010020B9207800F004000428D9
:103DD0002FD100205B498866FEF712FF054606E0FA
:103DE000FEF70EFF401B022801D90320F8BD5648FC
:103DF0000068C0F3C0600028F2D160688101207AB9
:103E000041EA007050498431086001204D498866BC
:103E1000FEF7F6FE054606E0FEF7F2FE401B02281E
:103E200001D90320E2E748480068C0F3C0600028D9
:103E3000F2D0207800F0020002287DD100BF0020DF
:103E4000009041484030006840F080503E49403189
:103E500008600846006800F08050009000BF00BF76
:103E60003A48006840F4807038490860FEF7C8FEA0
:103E7000054606E0FEF7C4FE401B022801D90320D8
:103E8000B4E73248006800F480700028F2D02E4871
:103E90007030006800F440764EB3A08900F44070A2
:103EA000B04224D028487030006820F440760120C9
:103EB00027490860002008602348703006600068C9
:103EC00000F0010098B1FEF79BFE054608E0FEF702
:103ED00097FE401B41F28831884201D9032085E7D3
:103EE000194870300068C0F340000028EFD000BFD0
:103EF000A08900F44070B0F5407F0CD11248083022
:103F0000006820F4F810134AE168114008430E4994
:103F10000831086007E00C480830006820F4F81009
:103F2000094908310860084870300068A189C1F368
:103F30000B010843044900E002E07031086000BF53
:103F4000002053E700004742003802400070004064
:103F5000400E4742FFFCFF0F70B504460D460CB9FA
:103F6000012070BD5848006800F00F00A84209D237
:103F700055490D700846006800F00F00A84201D0B6
:103F80000120EEE7207800F0020002281DD1207801
:103F900000F00400042805D14C48006840F4E050CB
:103FA0004A490860207800F00800082805D14748F1
:103FB000006840F46040454908604448006820F0CB
:103FC000F000A168084341490860207800F0010032
:103FD000A8B36068012807D13C4808380068C0F3DE
:103FE0004040B8B90120BCE76068022802D0606890
:103FF000032807D1354808380068C0F3406048B945
:104000000120AEE7314808380068C0F3400008B925
:104010000120A6E72D48006820F0030061680843EE
:104020002A490860FEF7ECFD064609E0FEF7E8FDC8
:10403000801B41F28831884202D9032091E707E0D2
:104040002248006800F00C006168B0EB810FEDD1F0
:104050001D48006800F00F00A84209D91A490D70E8
:104060000846006800F00F00A84201D0012078E760
:10407000207800F00400042807D11448006820F4D8
:10408000E050E168084311490860207800F008001A
:10409000082808D10D48006820F46040216940EAF2
:1040A000C1000A49086000F03FF808490968C1F3F7
:1040B0000311074A515CC840064908600648006879
:1040C000FEF7BAFF00204CE7003C024008380240EF
:1040D00054F90008CC0000204C0200200148006880
:1040E00070470000CC00002000B5FFF7F7FF04493F
:1040F0000968C1F38221034A515CC84000BD000039
:104100000838024064F9000800B5FFF7E7FF0449EA
:104110000968C1F34231034A515CC84000BD000048
:104120000838024064F900082DE9F0470024002512
:104130000026A1462548006800F00C0020B10428A4
:1041400005D008283AD105E0DFF8849039E0DFF89F
:10415000849036E01D48001F006800F03F041B48B3
:10416000001F006800F4800078B11A481749091F41
:104170000968C1F38811A0FB0170014622460023A3
:104180003846FCF7F1F805460EE011480F49091FC3
:104190000968C1F38811A0FB017001462246002383
:1041A0003846FCF7E1F805460848001F0068C0F3F0
:1041B0000140401C4600B5FBF6F902E0DFF8109024
:1041C00000BF00BF4846BDE8F08700000838024045
:1041D0000024F400001BB700F8B504460CB9012018
:1041E000F8BD207800F00100002874D0F94800687C
:1041F00000F00C0004280DD0F648006800F00C0018
:10420000082813D1F348001F006800F48000B0F5BF
:10421000800F0BD1EF4808380068C0F340400028F9
:1042200059D06068002856D10120D9E700BF6068E6
:10423000B0F5803F08D1E7480838006840F4803086
:10424000E449083908601EE06068B0F5A02F0DD180
:10425000E0480838006840F48020DE4908390860EA
:104260000846006840F4803008600CE0D9480838FF
:10427000006820F48030D749083908600846006893
:1042800020F48020086000BF606890B1FEF7B8FCA1
:10429000054606E0FEF7B4FC401B642801D9032064
:1042A0009EE7CC4808380068C0F340400028F1D0B1
:1042B00011E0FEF7A5FC054606E0FEF7A1FC401B59
:1042C000642801D903208BE7C24808380068C0F38E
:1042D00040400028F1D1207800F0020002285FD190
:1042E000BC48006800F00C0058B1BA48006800F003
:1042F0000C0008281CD1B748001F006800F480009B
:10430000B0B9B44808380068C0F3400020B1E06894
:10431000012801D0012063E7AE480838006820F08A
:10432000F800216940EAC100AA490839086037E06D
:10433000E06800B30120A8490860FEF761FC05466B
:1043400006E0FEF75DFC401B022801D9032047E789
:10435000A04808380068C0F340000028F1D09D480C
:104360000838006820F0F800216940EAC100994946
:104370000839086014E0002097490860FEF740FC07
:10438000054606E0FEF73CFC401B022801D903204D
:1043900026E7904808380068C0F340000028F1D1B3
:1043A000207800F0080008282CD16069A8B101200D
:1043B0008A490860FEF724FC054606E0FEF720FC6B
:1043C000401B022801D903200AE782486C300068AC
:1043D000C0F340000028F1D014E000207F490860BD
:1043E000FEF70EFC054606E0FEF70AFC401B02281D
:1043F00001D90320F4E677486C300068C0F3400030
:104400000028F1D1207800F00400042870D10027A2
:1044100070483830006800F0805090B900BF00202C
:1044200000906C483830006840F08050694938315D
:1044300008600846006800F08050009000BF00BF90
:1044400001276748006800F48070B0B964480068CC
:1044500040F4807062490860FEF7D2FB054606E032
:10446000FEF7CEFB401B022801D90320B8E65C48CA
:10447000006800F480700028F2D000BFA068012816
:1044800008D154486830006840F001005149683153
:1044900008601DE0A06805280DD14E48683000680E
:1044A00040F004004B49683108600846006840F05D
:1044B000010008600CE047486830006820F0010007
:1044C0004449683108600846006820F0040008602C
:1044D00000BFA068A8B1FEF793FB054609E0FEF710
:1044E0008FFB401B41F28831884202D9032077E6D6
:1044F00026E0384868300068C0F340000028EED05D
:1045000013E0FEF77DFB054608E0FEF779FB401B54
:1045100041F28831884201D9032061E62D48683094
:104520000068C0F340000028EFD1012F07D12948CF
:104530003830006820F0805026493831086000BFCC
:10454000A069002845D02348006800F00C00082826
:104550005DD0A069022845D100201F490866FEF7FA
:104560004FFB054606E0FEF74BFB401B022801D936
:10457000032035E6174808380068C0F3406000287B
:10458000F1D1D4E907010843616A40EA81110122AF
:10459000A06AC2EB500041EA00412C20005D41EAD4
:1045A00000600C49091F086001200B490866FEF7EE
:1045B00027FB054606E0FEF723FB401B022801D936
:1045C00003200DE6034808380068C0F34060002867
:1045D000F1D03FE00838024000004742800E4742D9
:1045E0000070004000201C490866FEF709FB0546E4
:1045F00006E0FEF705FB401B022801D90320EFE58A
:1046000016480068C0F340600028F2D122E0A0699B
:10461000012800D1E4E51148001D066806F4800178
:10462000E069814214D106F03F01206A81420FD136
:1046300047F6C0703040616A884209D106F44031C3
:10464000A06A814204D106F07061E06A814201D023
:104650000120C5E50020C3E50000474200380240C4
:1046600010B504460CB9012010BD607920B90020B6
:104670002071204600F00EF802206071206800686A
:1046800040F0040021680860012060710020A060F3
:1046900000BFE9E708B50A4A016891420FD100BF9F
:1046A000002100910749096841F04001054A116065
:1046B0001146096801F04001009100BF00BF08BD2C
:1046C000000806503438024010B504460CB90120E9
:1046D00010BD607F20B900202077204600F060F8F0
:1046E0000220607700BFCA202168486253202168F9
:1046F000486200BF204602F0F9F940B100BFFF2038
:104700002168486200BF042060770120E0E720684C
:1047100080682249084021688860216960680843F0
:1047200061690843216889680843216888602168B5
:10473000E068086120680169208941EA0040216839
:1047400008612068C06820F080002168C860206887
:10475000806800F0200060B9204600F041F840B1C8
:1047600000BFFF202168486200BF0420607701205D
:10477000AEE72068006C20F480202168086420687F
:10478000006CA16908432168086400BFFF2021680C
:10479000486200BF01206077002099E7BFFF8FFFCC
:1047A0001FB5044600200090019002900390094933
:1047B000206888420CD10220009007480390684688
:1047C000FFF7FAFA08B1FCF7F5FD0120034908608C
:1047D0001FBD00000028004000031E003C0E4742A1
:1047E00070B5044600252068C06820F0A00021684C
:1047F000C860FEF705FA054607E0FEF701FA401B20
:10480000B0F57A7F01D9032070BD2068C06800F040
:1048100020000028F1D00020F6E710B504460CB9BE
:10482000012010BD606A00B900BF0021A16294F8A8
:10483000510028B9002084F85000204600F034F8D8
:10484000022084F851002068006820F040002168B0
:104850000860D4E901010843E1680843216908437D
:1048600061690843218B01F400710843E169084341
:10487000216A0843A16A0843216808600421A069ED
:1048800001EA1040616A0843216848602068C069F5
:1048900020F400602168C86100206065012084F870
:1048A00051000020BDE7000010B586B00446142179
:1048B00001A8FBF771FE6749206888427ED100BFDE
:1048C000002000906448006840F48050624908600D
:1048D0000846006800F48050009000BF00BF00BF91
:1048E000002000905C481438006840F002005A49EB
:1048F000143908600846006800F00200009000BF0C
:1049000000BF00BF002000900846006840F0010092
:1049100008600846006800F00100009000BF00BF7A
:10492000182001900220029001200390032004909F
:104930000520059001A94948FEF75CF88020019008
:10494000022002900120039003200490052005908E
:1049500001A94348FEF74EF84248434908604FF02A
:10496000C0604860002140488160C1604FF48061B0
:104970000161002141618161C1614FF440310162F7
:1049800000214162FDF742FF08B1FCF713FD00BFB3
:104990003548E064846300BF32481830334908600A
:1049A0004FF0C06048604021304881600021C16004
:1049B0004FF4806101610021416100E010E08161FC
:1049C000C1614FF40031016200214162FDF71EFF19
:1049D00008B1FCF7EFFC00BF2448A064846336E014
:1049E00023492068884232D100BF002000901A4835
:1049F000001F006840F480401749091F08600846FE
:104A0000006800F48040009000BF00BF00BF00209D
:104A1000009011481438006840F002000E49143923
:104A200008600846006800F00200009000BF00BF68
:104A30004FF4604001900220029001200390032077
:104A400004900520059001A90448FDF7D3FF06B0A6
:104A500010BD000000300140443802400004024014
:104A60000000024040640240C80D0020280E0020D3
:104A70000038004070B504462546681EB0F1807FBE
:104A800001D301200FE0681E4FF0E02148610F21A3
:104A90004FF0FF3007F024FB00204FF0E021886149
:104AA00007200861002070BD10B50346002200BF3A
:104AB00093F83C00012801D1022010BD012083F8A9
:104AC0003C0000BF22F0FF00CC6840EA040222F460
:104AD00040708C6840EA040222F480604C6840EA2E
:104AE000040222F400600C6840EA040222F48050C0
:104AF0000C6940EA040222F400504C6940EA0402C6
:104B000022F48040CC6940EA04021868426400BF85
:104B1000002083F83C0000BF00BFCEE730B502465E
:104B20000B4600BF92F83C00012801D1022030BDA5
:104B3000012082F83C0000BF022082F83D0010688E
:104B400044681068816824F0700418680443106891
:104B50004460184D1068A8421BD01068B0F1804F17
:104B600017D0154D1068A84213D0144D1068A842F4
:104B70000FD0134D1068A8420BD0124D1068A842F8
:104B800007D0114D1068A84203D0104D1068A842FC
:104B900005D121F08001586801431068816001202F
:104BA00082F83D0000BF002082F83C0000BF00BF3B
:104BB000BDE7000000000140000400400008004084
:104BC000000C00400004014000400140001800407B
:104BD00010B504460CB9012010BD94F83D0028B969
:104BE000002084F83C00204600F00CF8022084F8F5
:104BF0003D00211D206804F039FC012084F83D00AF
:104C00000020E9E708B53F4A016891420FD100BF93
:104C1000002100913C49096841F001013A4A1160C4
:104C20001146096801F00101009100BF69E0374AAF
:104C30000168914211D100BF002100913249091F42
:104C4000096841F00201304A121F116011460968DB
:104C500001F00201009100BF53E02D4A016891422A
:104C600011D100BF002100912749091F096841F0B7
:104C70000401254A121F11601146096801F0040160
:104C8000009100BF3DE0234A0168914211D100BF6D
:104C9000002100911C49091F096841F008011A4AC6
:104CA000121F11601146096801F00801009100BF50
:104CB00027E0194A016891420FD100BF00210091FD
:104CC0001149096841F002010F4A11601146096853
:104CD00001F00201009100BF13E0104A0168914207
:104CE0000FD100BF002100910749096841F400314C
:104CF000054A11601146096801F40031009100BFB6
:104D000000BF08BD000001404438024000040040DC
:104D100000080040000C0040000401400044014035
:104D20000146022081F83D000868806800F0070213
:104D3000062A05D00868006840F001000B6818607A
:104D4000012081F83D00002070472DE9F041044624
:104D50000D4600BF94F83C00012802D10220BDE8B6
:104D6000F081012084F83C0000BF022084F83D005F
:104D70002068866826F0770626F47F4620688660DD
:104D80002868502833D00CDC202850D004DC0028C0
:104D90004BD0102851D149E0302849D040284CD17F
:104DA00039E060282DD0702807D0B0F5805F03D09F
:104DB000B0F5005F41D10DE040E0D5E902136A682B
:104DC000206804F0D0FB2068866846F077062068EB
:104DD000866033E0D5E902136A68206804F0C3FBFB
:104DE0002068806840F480402168886026E0EA6896
:104DF0006968206804F0A8FC5021206804F0BEFB1C
:104E00001CE0EA686968206804F0B1FC6021206851
:104E100004F0B4FB12E0EA686968206804F094FCCE
:104E20004021206804F0AAFB08E000BF00BF00BFDB
:104E30002968206804F0A2FB00E000BF00BF012049
:104E400084F83D0000BF002084F83C0000BF00BF94
:104E500085E7000010B586B00446142101A8FBF7D1
:104E60009BFB99492068884232D100BF0020009006
:104E70009648006840F010009449086008460068B1
:104E800000F01000009000BF00BF4FF4D44001902C
:104E9000022002900120039002200490012005903E
:104EA00001A98B48FDF7A6FD8A48FFF739FF0021CD
:104EB000884800F0CFF90421864800F0CBF908219A
:104EC000844800F0C7F90C21824800F0C3F9F9E0EA
:104ED00081492068884224D100BF002000907B488F
:104EE000006840F00400794908600846006800F056
:104EF0000400009000BF00BF8815019002200290BE
:104F00000120039002200490059001A97348FDF749
:104F100071FD7348FFF704FF0821714800F09AF90A
:104F2000D0E070492068884226D100BF0020009060
:104F30006648006840F00800644908600846006858
:104F400000F00800009000BF00BF4FF480400190C7
:104F5000022002900120039003200490022005907B
:104F600001A96148FDF746FD6048FFF7D9FE082119
:104F70005E4800F06FF9A5E05D49206888422DD1B8
:104F800000BF002000905148006840F080004F4969
:104F900008600846006800F08000009000BF00BF75
:104FA0004FF4E05001900220029001200390022073
:104FB0000490059001A94F48FDF71CFD4E48FFF7EE
:104FC000AFFE00214C4800F045F904214A4800F0AA
:104FD00041F90821484800F03DF973E0474920684D
:104FE000884246D100BF002000903848006840F455
:104FF0008070364908600846006800F480700090B0
:1050000000BF00BF00BF002000900846006840F0CD
:10501000040008600846006800F00400009000BF2B
:1050200000BF402001900220029001200390022046
:1050300004900320059001A93148FDF7DBFC4020D6
:10504000019002200290012003900220049003208E
:10505000059001A92148FDF7CDFC2A48FFF760FE25
:105060000021284800F0F6F80421264800F0F2F864
:1050700028E025492068884224D100BF0020009004
:105080001248006840F02000104908600846006897
:1050900000F02000009000BF00BF402001900220DF
:1050A000029001200390022004900320059001A9A2
:1050B0001648FDF79FFC1648FFF732FE0021144802
:1050C00000F0C8F806B010BD0000014030380240C2
:1050D00000100240880E002000040040000802403A
:1050E000C80E002000080040000C0240080F0020FD
:1050F000000C0040001C0240480F0020000401404A
:1051000000200240880F00200044014000140240AB
:10511000C80F002070B504460D46164600BF94F82F
:105120003C00012801D1022070BD012084F83C0020
:1051300000BF022084F83D0036B1042E1BD0082E9B
:1051400031D00C2E5ED145E02946206804F020FACB
:105150002068806940F008002168886120688069C3
:1051600020F004002168886120688069296908436B
:105170002168886147E02946206804F041FA2068E8
:10518000806940F40060216888612068806920F4AB
:1051900080602168886120688069296940EA01206F
:1051A000216888612FE02946206804F067FA2068AA
:1051B000C06940F008002168C8612068C06920F01B
:1051C00004002168C8612068C06929690843216812
:1051D000C86118E02946206804F08CFA2068C0698C
:1051E00040F400602168C8612068C06920F48060D4
:1051F0002168C8612068C069296940EA01202168E6
:10520000C86100E000BF00BF012084F83D0000BF7E
:10521000002084F83C0000BF00BF85E710B50446BD
:105220000CB9012010BD94F83D0028B9002084F885
:105230003C00204600F00CF8022084F83D00211DBF
:10524000206804F013F9012084F83D000020E9E70C
:105250007047000070B504460E46012231462068B2
:1052600004F070F90F492068884203D00E49206885
:10527000884201D1012000E0002028B12068406C64
:1052800040F40040216848642068806800F0070509
:10529000062D05D02068006840F0010021680860F4
:1052A000002070BD000001400004014010B504461C
:1052B0000CB9012010BDA06900B100E000BF94F856
:1052C000390028B9002084F83800204600F028F87A
:1052D000242084F839002068C06820F40050216838
:1052E000C860204604F07EFA2068006920F49040EF
:1052F000216808612068406920F02A00216848611F
:105300002068C06840F400502168C8600020E06355
:10531000202084F8390084F83A000020CAE7000011
:1053200010B586B00446142101A8FBF735F9AA4947
:10533000206888426ED100BF00200090A748006816
:1053400040F01000A54908600846006800F0100011
:10535000009000BF00BF00BF002000909F4814389D
:10536000006840F002009D49143908600846006852
:1053700000F00200009000BF00BF00BF00200090BE
:105380000846006840F0010008600846006800F028
:105390000100009000BF00BF802001900220029019
:1053A00000200390032004900720059001A98C4859
:1053B000FDF720FB4FF400700190022002900020C6
:1053C0000390032004900720059001A98548FDF76C
:1053D00011FB8548854908604FF000604860402116
:1053E000824881600021C1604FF480610161002129
:1053F00041618161C1614FF48031016200214162EC
:10540000FDF704FA08B1FBF7D5FF00BF774820632A
:105410008463DEE07649206888425BD100BF0020CB
:1054200000906E48001F006840F480206B49091FFF
:1054300008600846006800F48020009000BF00BFAC
:1054400000BF0020009065481438006840F0040058
:105450006249143908600846006800F004000090B2
:1054600000BF00BF4FF44060019002200290002076
:105470000390032004900720059001A95D48FDF7E3
:10548000B9FA5D485D4908604FF00060486000214E
:105490005A488160C1604FF480610161002141611F
:1054A0008161C1614FF40031016200214162FDF769
:1054B000ADF908B1FBF77EFF00BF5048606384631D
:1054C00000BF002204212720FDF716FE2720FDF74C
:1054D00003FE7EE04A49206888427AD100BF00205E
:1054E00000903E48006840F020003C4908600846B3
:1054F000006800F02000009000BF00BF00BF002047
:10550000009036481438006840F0400033491439A0
:1055100008600846006800F04000009000BF00BF2F
:105520004FF4844001900220029000200390032059
:1055300004900820059001A93248FDF75BFA2A483B
:105540009038314908608005486000212E4881600C
:10555000C1604FF480610161002141618161C161DD
:105560004FF40031016200214162FDF74FF908B1AB
:10557000FBF720FF00BF24486063846300BF1A4824
:105580001838224908604FF02060486040211F48C9
:1055900081600021C1604FF480610161002141619F
:1055A0008161C1614FF48031016200214162FDF7E8
:1055B0002DF908B1FBF7FEFE00BF14482063846399
:1055C00000BF002205214720FDF796FD4720FDF78B
:1055D00083FD06B010BD00000010014044380240B9
:1055E0000004024000000240B8640240C8100020DD
:1055F00000480040000802402860024028110020B6
:10560000001401400018024088110020E811002019
:1056100000BFFEE770B504460D461646308888B9CF
:10562000184890ED000A184880ED000A154890EDE2
:10563000010A154880ED010A124890ED020A12484D
:1056400080ED020A324611490F4807F095FB0E48DB
:1056500090ED000A85ED000A90ED010A85ED010A42
:1056600090ED020A85ED020AB7EE000A84ED000A09
:10567000B7EE000A84ED010AB7EE000A84ED020AD3
:1056800070BD00002033002014330020D8330020E8
:1056900091ED000A0E4A82ED000A91ED010A82EDB9
:1056A000010A91ED020A82ED020A92ED000A094A0E
:1056B00082ED000A064A92ED010A064A82ED010ACD
:1056C000034A92ED020A034A82ED020A7047000083
:1056D000203300201433002030B50B46002100BFDA
:1056E00016E00A24B4EB107F05D9302404EB1074C3
:1056F00003F8114005E0412404EB10740A3C03F860
:105700001140000100254C00641C1D554C1CE1B2E9
:105710009142E6DB30BD00001448C088062822D242
:10572000DFE800F02103090F151B9FED110A114856
:1057300080ED000A17E09FED100A0E4880ED000A88
:1057400011E09FED0E0A0B4880ED000A0BE09FED83
:105750000C0A084880ED000A05E09FED0A0A05489A
:1057600080ED000A00BF00BF70470000F23F00203C
:1057700000A0BE441402002000E0444500C05AC509
:1057800000C0DAC40000000014480089062822D2B4
:10579000DFE800F02103090F151B9FED110A1148E6
:1057A00080ED000A17E09FED100A0E4880ED000A18
:1057B00011E09FED0E0A0B4880ED000A0BE09FED13
:1057C0000C0A084880ED000A05E09FED0A0A05482A
:1057D00080ED000A00BF00BF70470000F23F0020CC
:1057E000000016452802002000E07645008022C512
:1057F00000806DC400002F441FB500200090019070
:10580000029003901548164908604FF40030486034
:105810000021134881600161017680F82010C16287
:10582000104981620021C1600121C161002180F81D
:10583000301001214161FBF7C1FF08B1FBF7BAFD50
:105840001020009001200190002002906946044839
:10585000FBF7EAFE08B1FBF7ADFD1FBD00200140DC
:10586000AC0A00200100000F1FB50020009001903D
:10587000029003901548164908604FF400304860C4
:105880000021134881600161017680F82010C16217
:10589000104981620021C1600121C161002180F8AD
:1058A000301001214161FBF789FF08B1FBF782FD50
:1058B00008200090012001900020029069460448D1
:1058C000FBF7B2FE08B1FBF775FD1FBD00220140DA
:1058D000F40A00200100000F10B50F480F490860BE
:1058E0000320486000210D488160C1604FF4102101
:1058F00001614FF4001141610021017601214176DF
:1059000000218176C17601774177FCF718FC08B158
:10591000FBF750FD10BD0000006400403C0B002070
:1059200010B50E480E4908600320486000210C485D
:105930008160C1604FF4102101614FF40011416199
:105940000021017641768176C17601774177FCF7B7
:10595000F6FB08B1FBF72EFD10BD0000006800400B
:10596000640B002010B50548054908600846FCF79F
:1059700002FE08B1FBF71EFD10BD00000030024022
:105980006000002008B500BF002000902A48006891
:1059900040F48000284908600846006800F4800050
:1059A000009000BF00BF00BF0020009008460068C4
:1059B00040F4001008600846006800F400100090F1
:1059C00000BF00BF002205210C20FDF795FB0C2035
:1059D000FDF782FB002205212F20FDF78DFB2F20F4
:1059E000FDF77AFB002205213920FDF785FB3920E0
:1059F000FDF772FB002205213A20FDF77DFB3A20DE
:105A0000FDF76AFB002205213B20FDF775FB3B20DB
:105A1000FDF762FB002205214520FDF76DFB4520C7
:105A2000FDF75AFB002205214620FDF765FB4620C5
:105A3000FDF752FB08BD00003038024000B5BBB096
:105A4000394903C9CDE939010022012139A807F0FC
:105A500053FB364908601C223349083132A8FAF753
:105A60003FFD002132A807F018FB314908601C22D5
:105A70002D4924312BA8FAF733FD00212BA807F07C
:105A80000CFB2C4908601C222749403124A8FAF756
:105A900027FD002124A807F000FB274908601C22ED
:105AA00021495C311DA8FAF71BFD00211DA807F054
:105AB000F4FA224908601C221B49783116A8FAF72B
:105AC0000FFD002116A807F0E8FA1D4908601C2206
:105AD000154994310FA8FAF703FD00210FA807F02C
